:100000000C9434000C9433010C944C010C9451006A
:100010000C9451000C9451000C9451000C9451001C
:100020000C9451000C943D020C9451000C9451001E
:100030000C9451000C9451000C9451000C945100FC
:100040000C9451000C9451000C9451000C945100EC
:100050000C9451000C9451000C9451000C945100DC
:100060000C9451000C94510011241FBECFEFD8E026
:10007000DEBFCDBF11E0A0E0B1E0E8E4F6E002C0F1
:1000800005900D92A630B107D9F711E0A6E0B1E0D6
:1000900001C01D92AD30B107E1F70E9465010C94DB
:1000A00022030C940000DF93CF930F92CDB7DEB7FD
:1000B000ECE7F0E08081ECE7F0E01082ACE7B0E044
:1000C000ECE7F0E0808180648C93AAE7B0E0EAE797
:1000D000F0E0808180688C930F90CF91DF9108953C
:1000E000DF93CF93CDB7DEB7AAE7B0E0EAE7F0E061
:1000F000808180648C93EAE7F0E08081882F90E033
:10010000807490700097B9F7E8E7F0E08081918102
:100110009093070180930601CF91DF910895DF93BB
:10012000CF93CDB7DEB7AAE7B0E0EAE7F0E0808191
:100130008F778C93CF91DF910895DF93CF9300D089
:10014000CDB7DEB789836A838A81882339F1AAE231
:10015000B0E0EAE2F0E08081482F8981282F30E08A
:1001600081E090E002C0880F991F2A95E2F7842B66
:100170008C93ABE2B0E0EBE2F0E08081482F898124
:10018000282F30E081E090E0022E02C0880F991FF6
:100190000A94E2F7809584238C9326C0AAE2B0E00B
:1001A000EAE2F0E08081482F8981282F30E081E069
:1001B00090E002C0880F991F2A95E2F7809584236A
:1001C0008C93ABE2B0E0EBE2F0E08081482F8981D4
:1001D000282F30E081E090E0022E02C0880F991FA6
:1001E0000A94E2F7842B8C930F900F90CF91DF91BC
:1001F0000895DF93CF93CDB7DEB7A9E6B0E0E9E687
:10020000F0E0808181608C93A9E6B0E0E9E6F0E05F
:1002100080818D7F8C93ADE3B0E0EDE3F0E08081F1
:1002200081608C937894CF91DF910895DF93CF9381
:10023000CDB7DEB7A9E6B0E0E9E6F0E08081846002
:100240008C93A9E6B0E0E9E6F0E08081877F8C93AB
:10025000ADE3B0E0EDE3F0E0808182608C937894D0
:10026000CF91DF9108951F920F920FB60F92112434
:100270008F93DF93CF93CDB7DEB7F89480910801C9
:100280008160809308017894CF91DF918F910F90D6
:100290000FBE0F901F9018951F920F920FB60F92DE
:1002A00011248F93DF93CF93CDB7DEB7F89480916D
:1002B00008018260809308017894CF91DF918F913B
:1002C0000F900FBE0F901F901895DF93CF93CDB76F
:1002D000DEB70E9470010E9487010E949E01FBCF41
:1002E000DF93CF93CDB7DEB782E060E00E949D0040
:1002F00083E060E00E949D0086E061E00E949D0036
:100300000E94F9000E941601CF91DF910895DF93BA
:10031000CF93CDB7DEB705C0809108018D7F809364
:1003200008018091080181708823B1F38091080150
:100330008E7F80930801CF91DF910895DF93CF9353
:10034000CDB7DEB709C00E94040380910801817017
:10035000882339F40E94CD0280910801817088239E
:1003600091F3809108018E7F80930801CF91DF91F6
:100370000895DF93CF93CDB7DEB7A4E4B0E0E4E413
:10038000F0E0808183608C93A4E4B0E0E4E4F0E0EA
:10039000808180688C93A5E4B0E0E5E4F0E08081A2
:1003A00085608C93A5E4B0E0E5E4F0E080818D7F8A
:1003B0008C93E7E4F0E080910A0180837894CF91F8
:1003C000DF910895DF93CF93CDB7DEB7E0EBF0E098
:1003D0001082A1EBB0E0E1EBF0E0808187608C93CC
:1003E000A0E7B0E0E0E7F0E0808181608C93789452
:1003F000CF91DF910895DF93CF93CDB7DEB7A4E41B
:10040000B0E0E4E4F0E080818C7F8C93A4E4B0E081
:10041000E4E4F0E080818F778C93A4E4B0E0E4E43E
:10042000F0E080818F7B8C93A5E4B0E0E5E4F0E020
:1004300080818A7F8C93A5E4B0E0E5E4F0E08081E0
:100440008D7F8C93CF91DF910895DF93CF93CDB7BC
:10045000DEB7E0EBF0E01082A1EBB0E0E1EBF0E022
:100460008081887F8C93A0E7B0E0E0E7F0E08081B6
:100470008E7F8C93CF91DF9108951F920F920FB6CC
:100480000F9211242F938F939F93DF93CF93CDB728
:10049000DEB7F89480910B0190910C010196909336
:1004A0000C0180930B0180910B0190910C0121E0D4
:1004B0008233920748F0809109018160809309019D
:1004C00010920C0110920B017894CF91DF919F91C3
:1004D0008F912F910F900FBE0F901F901895DF9363
:1004E000CF9300D0CDB7DEB70E9470008091060197
:1004F00090910701009751F08091060190910701BA
:100500008333910518F41A82198240C08091060144
:10051000909107018333910560F0809106019091DD
:100520000701893C910528F481E090E09A83898352
:100530002DC08091060190910701893C910568F0DA
:10054000809106019091070121E0853F920728F4F0
:1005500082E090E09A83898319C08091060190918E
:10056000070121E0853F920768F080910601909194
:10057000070123E0893E920728F483E090E09A8304
:10058000898304C084E090E09A83898389819A8179
:100590000F900F90CF91DF910895DF93CF93CDB758
:1005A000DEB70E9453000E94B9010E94E20114C00C
:1005B000809109018170882379F00E946F02FC010B
:1005C000E050FF4F808180930A010E94B901809121
:1005D00009018E7F80930901809108018170882331
:1005E00029F4809108018270882311F38091080119
:1005F0008D7F809308010E948F000E94FB010E9462
:100600002502CF91DF910895DF93CF93CDB7DEB769
:100610008091020180930A010E94B9018091080132
:100620008270882329F48091080181708823B1F3B6
:10063000809108018D7F809308010E94FB01CF917A
:08064000DF910895F894FFCF4B
:06064800003F7FBEFE0032
:00000001FF
